:020000040800F2
:100000000050002065050008CD050008CD0500085A
:10001000CD050008CD050008CD0500080000000052
:10002000000000000000000000000000CD050008F6
:10003000CD05000800000000CD05000831010008D2
:1000400000000000000000000000000000000000B0
:1000500000000000000000000000000000000000A0
:100060000000000000000000000000000000000090
:100070000000000000000000000000000000000080
:100080000000000000000000000000000000000070
:100090000000000000000000000000000000000060
:1000A0000000000000000000000000000000000050
:1000B0000000000000000000000000000000000040
:1000C0000000000000000000000000000000000030
:1000D0000000000000000000000000000000000020
:1000E0000000000000000000000000000000000010
:1000F0000000000000000000000000000000000000
:1001000000000000000000000000000000000000EF
:1001100000000000000000000000000000000000DF
:1001200000000000000000000000000000000000CF
:1001300040F22000C2F20000016801310160704706
:1001400096B041F61C10C0F6000040F60004703076
:10015000C4F2010400F060FA40F2023000F040FB0B
:100160004FF4417000F03CFB2046FF2100F047FBBC
:10017000204600210222FF2300F0FCFA04F500656E
:1001800028464FF4005100F03AFB28460221002295
:100190004FF4005300F0EEFA042000F04AFB41F661
:1001A0003F10C0F2010000F03CFB00F04CFB00F0FF
:1001B00053FB20464FF4805100F023FB20460221E0
:1001C00000224FF4805300F0D5FA40F22002C2F230
:1001D000000210681168091A6429FBD32046002127
:1001E00001224FF4C053002500F0C4FA4FF2E87129
:1001F00041F6360240F22400C1F6FF71C0F600025B
:10020000C2F200006B5C00EB45071B09D35C00F8F1
:1002100015306B5C013503F00F03D35C0C2D7B7044
:10022000F0D10026067640F23D00C2F20000032124
:10023000CDE9001041F6E01041F6700141F682026E
:1002400040F200034FF48077C0F60000C0F60001D2
:10025000C0F60002C2F20003029700F006FB40F273
:100260003741C0F60001054600F02EFB40F2634125
:10027000C0F600012846039500F0EEFC40F2200B8A
:10028000C2F2000BDBF8008006AD4FF0010900BFA1
:1002900009FA06F1204605EBC60700F0B5FAB0FAF8
:1002A00080F04009DBF8001005F836000136082E12
:1002B00078707960ECD140F23D1940F23E17C2F2FD
:1002C00000094FF0010A5E46C2F20007039800F0F1
:1002D00029FBD6F800B0C3456DD040F24018002687
:1002E000C2F200080AFA06F1204600F08DFAB0FAD0
:1002F00080F205EBC6004178520991421EBF427060
:10030000C0F804B0114602788A4223D04268ABEBB1
:100310000202192A1ED30170E1B199F80000C8B198
:100320003878C00716D040F24410C2F200000068CE
:10033000D8F80020411C01F01F0191420AD040F280
:100340004813721CC2F200031A5440F24410C2F265
:10035000000001600136082EC4D199F80000012880
:100360000ED13878C0070BD004F500604FF400516F
:1003700000F047FA40F22006D846C2F200061AE022
:1003800044F6D350C1F26200ABFB000188094FF480
:100390007A7100FB11B040F220066328C2F2000619
:1003A00004F500604FF4005102D800F02AFA01E091
:1003B00000F025FAD84699F8000001287FF486AFAE
:1003C00040F23E10C2F200000078C0073FF47EAF5A
:1003D00040F2401040F24411C2F20000C2F20001AB
:1003E0000068096888423FF471AF45F24241ADF8B8
:1003F000121040F24811C2F20001085C4E21303068
:100400008DF815000A20ADF8160003988DF8141029
:1004100082210DF11202052300F088FA05287FF4ED
:1004200055AF40F24011C2F200010868013000F0FF
:100430001F0008604AE740F23D10C2F200000021B0
:10044000017040F23E10C2F20000017040F2401014
:10045000C2F20000016040F24410C2F200000160EC
:100460007047F0B581B0044640F23E100026C2F25B
:100470000000067040F24010C2F2000040F23D154C
:10048000066040F24410C2F20005C2F200000129E9
:100490002E70066023D140F2E340C0F600000090C9
:1004A0002046012102224023012700F02FFA204696
:1004B000822102224023009600F028FA2046832160
:1004C00003221023009600F021FA40F2F543C0F613
:1004D0000003204621217F2200F03EFA2F7001B058
:1004E000F0BD80B590B06A46402300F024FA10B009
:1004F00080BDD4D4888808B100207047487820286F
:100500001FD0212815D02228F6D1887840F23E113C
:1005100000F00100C2F20001087040F24010C2F287
:1005200000000021016040F24410C2F200000160AE
:1005300016E040F20C00C2F20000106007201880A4
:100540000EE018880728D7D140F20C010020C2F233
:10055000000100BF13681B5C0B5401300728F9D160
:100560000120704740F2200040F200034EF608518F
:10057000C2F20000C2F20003CEF200014FF00062AE
:1005800083420A600ED241F6302140F20002C0F6EA
:100590000001C2F2000200BF51F8043B42F8043BE4
:1005A0008242F9D340F2842040F22001C2F20000DE
:1005B000C2F20001814205D2002200BF41F8042BA3
:1005C0008142FBD3FFF7BCFDFEE7D4D4FEE7D4D4D1
:1005D00032B1034611F801CB013A03F801CBF9D14E
:1005E0007047D4D472B100BF90F800C00B789C451E
:1005F0001CBFACEB03007047013A00F1010001F1B0
:100600000101F1D100207047002100BF425C01319F
:10061000002AFBD1481E7047B0B541F20005C4F274
:100620000205417804462868012907D140F480304A
:10063000286000BF28688003FCD506E040F0010078
:10064000286000BF28688007FCD56868A17820F082
:10065000F00040EA0110E278237994F805C0686060
:10066000686820F4E06040EA02206860686820F46E
:10067000605040EAC3206860686820F4404040EA67
:100680008C306860207B6968002821F4800118BFE5
:1006900001F580016960A07900F0B9F868682278F6
:1006A00020F4701141EA82416378E07969606968F9
:1006B000022821F4803141EA0341696005D3E96AE7
:1006C00021F00F010843E86205E0696821F4003178
:1006D00041EA40406860207A18B1E86A40F480300E
:1006E000E862607A28B1E96A21F0F00141EA00107D
:1006F000E862A07A68B1E96A21F4706141EA0020F9
:10070000E862286840F08060286000BF2868000127
:10071000FCD5E07A68B1E96A21F4704141EA003021
:10072000E862286840F08050286000BF2868800098
:10073000FCD5286840F08070286000BF28688001E0
:10074000FCD56868022161F30100686004F11003C0
:1007500040F21C000ECBC2F20000016040F2140017
:10076000C2F20000026040F21800C2F20000036012
:10077000B0BDD4D42DE9F047D0F800E0D0F804C0E3
:1007800000246FF01F084FF00F09002723FA04F52B
:10079000ED071AD008EB8705E246082C3CBFF2466D
:1007A000A500ADB209FA05F62AEA060A01FA05F62D
:1007B00005F1020502FA05F545EA060545EA0A05CE
:1007C00038BFAE46072C88BFAC460134102C07F169
:1007D0000107DBD1C0F800E0C0F804C0BDE8F08735
:1007E00041F2000300F01F014009C4F202034FF080
:1007F000010CC2580CFA01F11143C150704701615C
:10080000704709040161704780680840704742F2F0
:100810000001C4F202010A6822F0070210430860D6
:1008200070474EF2140120F07F40CEF200010860C4
:1008300070474EF21001CEF200010A68800860F3A2
:1008400082020A6070474EF21000CEF2000001688A
:1008500041F00201016070474EF21000CEF200003C
:10086000016841F00101016070472DE9F04706463B
:100870000068DDF82880DDE908A91C4615460F460A
:100880008047C0E9007540F68B1240F63D2340F6E4
:1008900095370021C0F60002C0F60003C0F600073D
:1008A000C0E93B61C0F8F410C0E9034AC0F81490F5
:1008B000A0F81880C0E91E73C0F88020C0E9361186
:1008C000C0E93811BDE8F0870162704710B582B009
:1008D00004464FF0000CA0F81AC00068D4F8EC10E1
:1008E000C379D1F808E0204600210022CDF800C0ED
:1008F000F047D4F8EC000021426820469047206A77
:1009000002B010B1BDE81040004710BD80B5D0F86E
:10091000ECC0DDF808E0DCF808C0CDF808E0BDE880
:1009200080406047D0F8EC10496A0847D0F8ECC026
:10093000DCF81CC06047D0F8ECC0DCF820C0604791
:10094000D0F8EC301B691847D0F8EC2092691047BA
:10095000D0F8EC305B69184710B54FF0000C00BFC1
:1009600000EBCC0EDEF858403CB10CF1010CBCF1B0
:10097000040FF5D14FF0FF3010BD00208EF85C1051
:100980008EF85D20CEF8583010BDB0B5044600F1A9
:10099000340500206064204600210122FFF7D8FFC3
:1009A000608FC8B195F90010B1F1FF3F14DD218BC4
:1009B000884230D822686169D279E1630021062338
:1009C000A4F84010904288BF0523204600222363EC
:1009D000BDE8B040FFF7BCBF6169A4F84000E16327
:1009E0002046294600F096F8A8B1618FD9B1B4F835
:1009F000400040B1884206D22168C979B0FBF1F2CB
:100A000002FB1100C0B10021204684F84810BDE867
:100A1000B04000F0F5B82046002101220025FFF784
:100A20008FFF2563B0BD2046002100220023FFF781
:100A30007DFF04202063B0BD0121E5E7B0B5044689
:100A4000006B07282ED0062810D0052822D120467A
:100A500000F038F8002824D42168608FB4F84020D2
:100A6000C979801A88421CDC062011E0204600F07B
:100A700029F8002815D404F13401204600F04AF882
:100A800040B12046002100220023FFF74FFF042041
:100A90002063B0BD2046002101220025FFF750FF52
:100AA0002563B0BD20460021002200230025FFF76A
:100AB00042FF626C25631AB104F13401204690476D
:100AC0006564B0BDF0B581B004460068628FB4F8CB
:100AD0004030C679E16BD01AB042B8BF0646B5B215
:100AE000CA18204600212B460027FFF724FFA84202
:100AF00005D1B4F840003044A4F8400007E0204697
:100B000000210122FFF71CFF27634FF0FF35284625
:100B100001B0F0BD2DE9F04782B00C46074600F168
:100B20003C0900F1400A00F14408002507EBC5002C
:100B3000866D9EB1217890F85D2090F85C001140A0
:100B4000814208D1384621464A465346CDF80080B6
:100B5000B04702281BD30135042DE7D1B86868B12E
:100B6000FE6C5EB1207800F07F00402806D1384648
:100B700021464A465346B047022808D33846214604
:100B80004A46534602B0BDE8F04700F07EBB02B0D3
:100B9000BDE8F087B0B50446006B042811D00328E7
:100BA00006D0022824D12046BDE8B04000F028B885
:100BB00007232046002100222363BDE8B040FFF751
:100BC000C7BE626C04F1340512B120462946904735
:100BD000287850B994F83500052806D1D4F8EC00EF
:100BE00094F8361042682046904700202063B0BD3C
:100BF0002046002101220025FFF7A2FE2563B0BD9B
:100C0000B0B504460068B4F8403090F807C0E26B15
:100C10002046002163450DD96346FFF787FE216812
:100C2000E26BC979022020635018B4F84020E063D9
:100C3000551A0DE00025FFF779FE94F848000028CA
:100C40004FF0030018BF0220206384F84850E5638A
:100C5000A4F84050B0BDD4D4D830002250F822308F
:100C600043B18B4208D00132042A04BF4FF0FF3059
:100C70007047F3E740F822100020704780B591F8E4
:100C800001C0BCF1090F0FD840F2613E2EFA0CFEF4
:100C90005FEACE7E08D041F6B81EC0F6000E5EF8C0
:100CA0002CC0BDE880406047002080BD0A7812B9A2
:100CB00049887F2901D900207047D0F8EC2081763F
:100CC00092F83430012B1CBF0120704780B5526868
:100CD000C9B29047012080BD70B50C4649880546D1
:100CE00089B12868427C62B1D5F804C000230CF1B8
:100CF000050000BF10F80D6BB14207D001339A42D6
:100D0000F8D1002070BD0020E8761AE05A1CD0B25D
:100D10000D2100FB01C0EA7610F8091C89B14FF0E3
:100D2000000C0023002200BF50F8046CF6581EB1DE
:100D300086F800C010F8091C01328A4203F1100342
:100D4000F2D3D5F8EC00C16828468847D5F8D8001A
:100D500078B100203626A8652866A866286700BFF7
:100D600055F8262012B161882846904701363A2E60
:100D7000F6D1012070BD1988022924BF01211980F4
:100D8000C17E31B140680D2301FB030010F8081C3F
:100D900000E0002112680120117070472DE9F04F2A
:100DA00089B01D464B889046DAB21B0A0446022BD6
:100DB0004FF0000000F3F480012B00F06281022B61
:100DC00040F0AA81D4F8149064680D20C8F800900F
:100DD0000295B5F8008002FB00F5675D02FB004B51
:100DE000B84538BF4746484659463A46FFF7F0FBF4
:100DF0009BF80400615D0028ADF82210CDF8049046
:100E000000F07081DBF809008A46A8EB0708B944B6
:100E100000253C46CDF80CB000EB05114246A0463B
:100E20008C68BCB1277890B21646B84238BF0746E6
:100E3000484621463A46FFF7CBFB2078B9440AEBF7
:100E40000001DBF80900F21B07EB08048A46ADF845
:100E5000221000E0444600EB05110979002900F05A
:100E60009580002756469046049500BF00EB05107C
:100E7000C568152007FB00FA07FB005B059715F80E
:100E80000A701FFA88F0B84238BF074648465946EC
:100E90003A46FFF79DFBDBF80D1015F80A00B94440
:100EA000A8EB07083C440644CDF818B0A1B1DBF824
:100EB00011001FFA88F5A842B8BF0546AFB24846F0
:100EC0003A46FFF785FBDDF818B0B944BBF81100CE
:100ED000A8EB05082C4406449BF804004B46C14689
:100EE000002841D04FF0000A002100BFDBF8098044
:100EF0001FFA89F018F80A5008EB0A070791A84270
:100F000038BF0546184639462A469B46FFF760FB20
:100F1000D7F8071018F80A00AB44A9EB05092C44D0
:100F20000644B9B1D7F80B00B04626461FFA89F43B
:100F3000A042B8BF0446A5B258462A46FFF748FB70
:100F4000B7F80B000BEB0503A9EB0409344408EBDD
:100F5000000600E05B46DDE906B10AF10F0A9BF8E6
:100F6000040001318142C1D3DDF80CB0049DDBF8EF
:100F70000900ADF8226000EB0511059F09790137E2
:100F80008F42C8469946FFF471AF01E0564690463D
:100F90009BF804100135B2468D42FFF43DAFA2E04C
:100FA000032B78D00F2B40F0B780002A40F0B4809C
:100FB000A768002F00F0B08060692E883C78029509
:100FC000C8F80000A64238BF34463946224680465B
:100FD000FFF7FEFA38793A7800284FD0A6EB040ADA
:100FE0004FF0000B4FF00009CDE90587D7F8050059
:100FF00000EB0905A878052840F0BF80A0B208EBF7
:1010000000071FFA8AF60792142E28BF14263846C6
:1010100029463246FFF7DCFA41F6A811281DC0F632
:1010200000011022FFF7DEFA10B1002012E000BF2D
:10103000AAEB06001FFA80F86969B8F1080F28BF0B
:101040004FF00808B8194246FFF7C2FA08EB06004D
:10105000DDF81480079A069F010403D15FEA0A4174
:1010600040F08B8029780BF1010B0A44397909F1A2
:101070002009AAEB000A8B450444B7D3A8F8022044
:101080007CE0206829880278C8F80000914238BFC7
:101090000A462A803FE066697AB3D4F8F0009042AD
:1010A0003DD1D4F8F400FFF7AFFA022101EB400084
:1010B00030702988C0B2814238BF08460428288091
:1010C00025D3D4F8F400B11C00224FF0FF3300BF49
:1010D000875C21F812702F88013203EB5707BA4260
:1010E000F6DB14E03C4601980DF1220102300222A9
:1010F000FFF76EFA029804800DE040F2094070801C
:10110000042030702988042938BF0846288003202D
:101110007070C8F80060012009B0BDE8F08FE06889
:1011200048B32369934226DB898840F209439942F8
:1011300021D1571E50F82700FFF766FA022101EB74
:10114000400030702988C0B2814238BF0846042868
:101150002880DCD3E068B11C50F8270000224FF053
:10116000FF33875C21F812702F88013203EB570799
:10117000BA42F6DBCBE70020CEE7002402980480D9
:10118000A0B2002818BF0120C6E718880021032854
:1011900024BF02201880106801701268012051706D
:1011A000704780B5D0F804C090F81BE00D200EFB0E
:1011B00000CCB1F804E01CF8090C864524BF0020DF
:1011C00080BD0120188088885CF8041C0001085844
:1011D000002814BF0078002011680870012080BD2D
:1011E000B0B54268C57E0D2405FB04228C8812F838
:1011F000095CAC4219D252F8042C1D4602EB0413D0
:101200004A881C79A24210D21B6863B11A70D0F8C8
:10121000E83023B1B1F804C04A88614698470020FD
:1012200028800120B0BD002AF1D00020B0BD188870
:101230000021032824BF0220188010680170126862
:1012400001205170704780B509790022FFF778FBC3
:10125000012080BD80B509790122FFF771FB0120D3
:1012600080BD10B514461A88032A24BF02221A80B2
:101270000979FFF769FB2168002818BF0120087071
:101280002168002201204A7010BD91F800C01CF0B6
:10129000600F01D0002070470CF01F0CBCF1020F52
:1012A00018D0BCF1010F05D0BCF1000F08BFFFF74B
:1012B000E5BCEFE791F801C0BCF1000F24D0BCF110
:1012C0000A0F1CD0BCF10B0FE4D141F2E11CC0F6B7
:1012D000000C604791F801C0BCF1000F23D0BCF1B5
:1012E000030F16D0BCF1010FD4D1B1F802C0BCF18C
:1012F000000FCFD141F2472CC0F6000C604741F2FD
:10130000A31CC0F6000C604741F22F2CC0F6000C65
:101310006047B1F802C0BCF1000FBBD141F2552CBF
:10132000C0F6000C604741F2632CC0F6000C604729
:1013300080B540F29730FFF753FA45F64041C4F2CA
:101340000001002008600861486040F270104FF40E
:101350001C42C2F200000A6080BDD4D4013252089F
:1013600008BF704731F8023B013A40F8043BF9D11D
:101370007047D4D4B0B55FEA520C09D08E4603460C
:10138000644600BF3EF8045B013C23F8025BF9D1E0
:10139000D30708BFB0BD22F0010231F8121000F8E7
:1013A0001C10B0BD41F0800045F64C41C4F2000174
:1013B000086070473F2A07D3501EC0F34412202014
:1013C00000EB4210203203E0501C420800F07E0087
:1013D00080B545F6504C9202C4F2000C1FFA82FE12
:1013E000DCF800304FF6FE72C0F2010202EA43025E
:1013F00002EB01116144C1F8BCE380BD2DE9F0416D
:1014000045F60046C4F2000601F07F05044656F892
:10141000250048F680773840284446F8250041F6F4
:10142000182756F82500C0F6000737F8122048F6AE
:101430008F173840104380B246F82500DDF8188039
:10144000A08B4FF6FE7C0A06C0F2010C00D42DBB27
:10145000376D06EB05110CEA47073944B8F1000F68
:10146000C1F800041EBF05EB450104EB8101C1F882
:10147000788056F8251048F6CF77394046F8251081
:1014800056F8251040F63F77394048F2A0077940DA
:101490001844002A46F82510A08329D4316D2A016A
:1014A0000CEA4101324480B21144C1F808042946D3
:1014B0001A46FFF77FFFB8F1000F1EBF05EB45018D
:1014C00004EB8101C1F87C8056F825104CF68F7230
:1014D000114046F8251056F8251043F60F721140BA
:1014E0004BF28002514046F82510A18B0844A0839E
:1014F000BDE8F08110B545F600420121C4F20002BA
:1015000040F63F7C48F2800343F60F7E52F82140BC
:1015100004EA0C041C4342F8214052F8214004EA3A
:101520000E041C4342F8214001310829EED1016824
:101530004022C97902EB4101818310BD45F6004C80
:10154000C4F2000C01B348B2B0F1FF3F2BDC01F054
:101550007F015CF8210040F63F73002A4FF0100233
:1015600000EA030008BF202280EA020048F280025D
:1015700040EA02004CF8210018BF70475CF82100D7
:1015800048F6CF72104024E0DCF8003040F63F709F
:1015900018401023002A08BF2023584048F2800337
:1015A0001843CCF8000012B14FF4805208E05CF808
:1015B00021004CF68F7210404FF440524CF821003D
:1015C0005CF8210043F60F731840504048F2800247
:1015D00010434CF82100704748B2B0F1FF3F45F688
:1015E0000040C4F2000008DD50F8210000F4405033
:1015F000B0F5805F09D10120704701F07F0150F8FC
:10160000210000F030001028F5D00020704748B2CB
:10161000002816D440F26810C2F2000045F6004CD3
:101620004254C4F2000C5CF8213043F60F701840AD
:10163000002A4AF2800208BF4BF2800250404CF868
:101640002100704770B545F60045C4F2000501F071
:101650007F0655F82600C04310F0300F01D100245A
:101660002AE0286D4FF6FE7180B200EBC60005EB54
:101670004000D0F80004C0F2010101EA400000F18E
:10168000804000F5C04011461A461C46FFF766FE32
:10169000286D46F2040180B200EBC600C4F20001DE
:1016A00041F8104055F8260040F63F71084048F2D6
:1016B000B001484045F82600204670BD70B545F69B
:1016C0000046C4F2000656F82100C04310F4405F03
:1016D00001D1002445E0306D0D4646F20C0180B288
:1016E000C4F2000100EBC50051F810001C466FF376
:1016F0009F2098424FEAC50006D2336D9BB2034447
:1017000051F813406FF39F24316D89B2084406EB02
:101710004000D0F808044FF6FE71C0F2010101EA62
:10172000400000F1804000F5C04110462246FFF71E
:1017300021FE56F8250040F60F710840803046F82B
:10174000250040F26810C2F20000405D48B956F82A
:10175000250043F60F7108404BF28001484046F8DF
:101760002500204670BDF0B581B045F60046C4F2B4
:101770000006776C0446790510D4380438D507F094
:101780000F0556F82500F90613D440F60F710840EE
:1017900000F5004046F82500002015E04FF6FF3028
:1017A000402170642046A18301B0BDE8F040FFF7FE
:1017B0008DB8000501D4012006E004F13402294669
:1017C0000823FFF77BFF022005EB450104EB8101B5
:1017D00001EB8000826F1AB120462946904707E04E
:1017E00056F8250040F60F710840803046F8250075
:1017F000380505D54FF2FF707064606A00B180470C
:10180000F80405D54EF6FF707064A06A00B18047F9
:10181000B80505D54FF6FF507064E06A00B1804707
:10182000E16A306C00290CBF20F4007040F40070B5
:10183000306401B0F0BD30313233343536373839A9
:10184000414243444546004D6163726F50696C6C80
:1018500020436F6E74726F6C202D20382042757497
:10186000746F6E73004D6163726F50696C6C00D45D
:1018700012010002020200408304405700020102EC
:101880000301090200000201008032BC18000809AF
:101890000400000102020100DC180008EB18000837
:1018A0001300000009040100020A000000FE1800F5
:1018B000080000000000000000D4D4D400000000A4
:1018C00001000000000000008F1800080000000068
:1018D0000100000000000000A418000807058303B1
:1018E0001000FF00000000000000000524001001AF
:1018F0000524010001042402020524060001070555
:101900000102400001000000000000000007058205
:10191000024000010000000000000000040100047B
:1019200000020200000000000000000000A24A04C3
:101930000051250200A24A0407010004000202012E
:10194000000000000000000000A24A04005125022F
:1019500000A24A0407010004000202040104060078
:101960000000000000A24A040051250200A24A041F
:101970000101000000000000000000000000000065
:1019800000366E0100366E0100366E01070100045C
:1019900000030200000000000000000000A24A0452
:1019A0000051250200A24A04DF60DDD88945C74CFA
:1019B0009CD2659D9E648A9F8B11000800000000E8
:1019C000000000000000000000000000AD0C000856
:1019D0009D0D000800000000770D0008D90C0008DC
:1019E00031130008A5130008FD130008F5140008C2
:1019F0003D1500080F160008D91500084516000807
:101A0000BD16000867170008000000000000000075
:101A100000000000000000000002000400000006BA
:101A200010E7FF7F010000000EFEFF7F01000000B5
:101A300065180008471800082400002000C20100B3
:101A40000000080000127A0000127A0000127A00EA
:040000050800056585
:00000001FF
